{
  "_format": "hh-sol-artifact-1",
  "contractName": "MockUSDC",
  "sourceName": "contracts/MockUSDC.sol",
  "abi": [
    {
      "inputs": [],
      "stateMutability": "nonpayable",
      "type": "constructor"
    },
    {
      "inputs": [
        {
          "internalType": "address",
          "name": "spender",
          "type": "address"
        },
        {
          "internalType": "uint256",
          "name": "allowance",
          "type": "uint256"
        },
        {
          "internalType": "uint256",
          "name": "needed",
          "type": "uint256"
        }
      ],
      "name": "ERC20InsufficientAllowance",
      "type": "error"
    },
    {
      "inputs": [
        {
          "internalType": "address",
          "name": "sender",
          "type": "address"
        },
        {
          "internalType": "uint256",
          "name": "balance",
          "type": "uint256"
        },
        {
          "internalType": "uint256",
          "name": "needed",
          "type": "uint256"
        }
      ],
      "name": "ERC20InsufficientBalance",
      "type": "error"
    },
    {
      "inputs": [
        {
          "internalType": "address",
          "name": "approver",
          "type": "address"
        }
      ],
      "name": "ERC20InvalidApprover",
      "type": "error"
    },
    {
      "inputs": [
        {
          "internalType": "address",
          "name": "receiver",
          "type": "address"
        }
      ],
      "name": "ERC20InvalidReceiver",
      "type": "error"
    },
    {
      "inputs": [
        {
          "internalType": "address",
          "name": "sender",
          "type": "address"
        }
      ],
      "name": "ERC20InvalidSender",
      "type": "error"
    },
    {
      "inputs": [
        {
          "internalType": "address",
          "name": "spender",
          "type": "address"
        }
      ],
      "name": "ERC20InvalidSpender",
      "type": "error"
    },
    {
      "inputs": [
        {
          "internalType": "address",
          "name": "owner",
          "type": "address"
        }
      ],
      "name": "OwnableInvalidOwner",
      "type": "error"
    },
    {
      "inputs": [
        {
          "internalType": "address",
          "name": "account",
          "type": "address"
        }
      ],
      "name": "OwnableUnauthorizedAccount",
      "type": "error"
    },
    {
      "anonymous": false,
      "inputs": [
        {
          "indexed": true,
          "internalType": "address",
          "name": "owner",
          "type": "address"
        },
        {
          "indexed": true,
          "internalType": "address",
          "name": "spender",
          "type": "address"
        },
        {
          "indexed": false,
          "internalType": "uint256",
          "name": "value",
          "type": "uint256"
        }
      ],
      "name": "Approval",
      "type": "event"
    },
    {
      "anonymous": false,
      "inputs": [
        {
          "indexed": true,
          "internalType": "address",
          "name": "user",
          "type": "address"
        },
        {
          "indexed": false,
          "internalType": "uint256",
          "name": "amount",
          "type": "uint256"
        }
      ],
      "name": "FaucetUsed",
      "type": "event"
    },
    {
      "anonymous": false,
      "inputs": [
        {
          "indexed": true,
          "internalType": "address",
          "name": "to",
          "type": "address"
        },
        {
          "indexed": false,
          "internalType": "uint256",
          "name": "amount",
          "type": "uint256"
        }
      ],
      "name": "MintedWithPermission",
      "type": "event"
    },
    {
      "anonymous": false,
      "inputs": [
        {
          "indexed": true,
          "internalType": "address",
          "name": "previousOwner",
          "type": "address"
        },
        {
          "indexed": true,
          "internalType": "address",
          "name": "newOwner",
          "type": "address"
        }
      ],
      "name": "OwnershipTransferred",
      "type": "event"
    },
    {
      "anonymous": false,
      "inputs": [
        {
          "indexed": true,
          "internalType": "address",
          "name": "from",
          "type": "address"
        },
        {
          "indexed": true,
          "internalType": "address",
          "name": "to",
          "type": "address"
        },
        {
          "indexed": false,
          "internalType": "uint256",
          "name": "value",
          "type": "uint256"
        }
      ],
      "name": "Transfer",
      "type": "event"
    },
    {
      "inputs": [],
      "name": "FAUCET_AMOUNT",
      "outputs": [
        {
          "internalType": "uint256",
          "name": "",
          "type": "uint256"
        }
      ],
      "stateMutability": "view",
      "type": "function"
    },
    {
      "inputs": [],
      "name": "FAUCET_COOLDOWN",
      "outputs": [
        {
          "internalType": "uint256",
          "name": "",
          "type": "uint256"
        }
      ],
      "stateMutability": "view",
      "type": "function"
    },
    {
      "inputs": [
        {
          "internalType": "address",
          "name": "owner",
          "type": "address"
        },
        {
          "internalType": "address",
          "name": "spender",
          "type": "address"
        }
      ],
      "name": "allowance",
      "outputs": [
        {
          "internalType": "uint256",
          "name": "",
          "type": "uint256"
        }
      ],
      "stateMutability": "view",
      "type": "function"
    },
    {
      "inputs": [
        {
          "internalType": "address",
          "name": "spender",
          "type": "address"
        },
        {
          "internalType": "uint256",
          "name": "value",
          "type": "uint256"
        }
      ],
      "name": "approve",
      "outputs": [
        {
          "internalType": "bool",
          "name": "",
          "type": "bool"
        }
      ],
      "stateMutability": "nonpayable",
      "type": "function"
    },
    {
      "inputs": [
        {
          "internalType": "address",
          "name": "account",
          "type": "address"
        }
      ],
      "name": "balanceOf",
      "outputs": [
        {
          "internalType": "uint256",
          "name": "",
          "type": "uint256"
        }
      ],
      "stateMutability": "view",
      "type": "function"
    },
    {
      "inputs": [],
      "name": "decimals",
      "outputs": [
        {
          "internalType": "uint8",
          "name": "",
          "type": "uint8"
        }
      ],
      "stateMutability": "view",
      "type": "function"
    },
    {
      "inputs": [],
      "name": "faucet",
      "outputs": [],
      "stateMutability": "nonpayable",
      "type": "function"
    },
    {
      "inputs": [
        {
          "internalType": "address",
          "name": "user",
          "type": "address"
        }
      ],
      "name": "getCooldownRemaining",
      "outputs": [
        {
          "internalType": "uint256",
          "name": "",
          "type": "uint256"
        }
      ],
      "stateMutability": "view",
      "type": "function"
    },
    {
      "inputs": [
        {
          "internalType": "address",
          "name": "",
          "type": "address"
        }
      ],
      "name": "lastFaucetTime",
      "outputs": [
        {
          "internalType": "uint256",
          "name": "",
          "type": "uint256"
        }
      ],
      "stateMutability": "view",
      "type": "function"
    },
    {
      "inputs": [
        {
          "internalType": "address",
          "name": "to",
          "type": "address"
        },
        {
          "internalType": "uint256",
          "name": "amount",
          "type": "uint256"
        }
      ],
      "name": "mintWithPermission",
      "outputs": [],
      "stateMutability": "nonpayable",
      "type": "function"
    },
    {
      "inputs": [],
      "name": "name",
      "outputs": [
        {
          "internalType": "string",
          "name": "",
          "type": "string"
        }
      ],
      "stateMutability": "view",
      "type": "function"
    },
    {
      "inputs": [],
      "name": "owner",
      "outputs": [
        {
          "internalType": "address",
          "name": "",
          "type": "address"
        }
      ],
      "stateMutability": "view",
      "type": "function"
    },
    {
      "inputs": [
        {
          "internalType": "address",
          "name": "to",
          "type": "address"
        },
        {
          "internalType": "uint256",
          "name": "amount",
          "type": "uint256"
        }
      ],
      "name": "ownerMint",
      "outputs": [],
      "stateMutability": "nonpayable",
      "type": "function"
    },
    {
      "inputs": [],
      "name": "renounceOwnership",
      "outputs": [],
      "stateMutability": "nonpayable",
      "type": "function"
    },
    {
      "inputs": [],
      "name": "symbol",
      "outputs": [
        {
          "internalType": "string",
          "name": "",
          "type": "string"
        }
      ],
      "stateMutability": "view",
      "type": "function"
    },
    {
      "inputs": [],
      "name": "totalSupply",
      "outputs": [
        {
          "internalType": "uint256",
          "name": "",
          "type": "uint256"
        }
      ],
      "stateMutability": "view",
      "type": "function"
    },
    {
      "inputs": [
        {
          "internalType": "address",
          "name": "to",
          "type": "address"
        },
        {
          "internalType": "uint256",
          "name": "value",
          "type": "uint256"
        }
      ],
      "name": "transfer",
      "outputs": [
        {
          "internalType": "bool",
          "name": "",
          "type": "bool"
        }
      ],
      "stateMutability": "nonpayable",
      "type": "function"
    },
    {
      "inputs": [
        {
          "internalType": "address",
          "name": "from",
          "type": "address"
        },
        {
          "internalType": "address",
          "name": "to",
          "type": "address"
        },
        {
          "internalType": "uint256",
          "name": "value",
          "type": "uint256"
        }
      ],
      "name": "transferFrom",
      "outputs": [
        {
          "internalType": "bool",
          "name": "",
          "type": "bool"
        }
      ],
      "stateMutability": "nonpayable",
      "type": "function"
    },
    {
      "inputs": [
        {
          "internalType": "address",
          "name": "newOwner",
          "type": "address"
        }
      ],
      "name": "transferOwnership",
      "outputs": [],
      "stateMutability": "nonpayable",
      "type": "function"
    }
  ],
  "bytecode": "0x60806040526005805460ff60a01b1916600360a11b1790553480156200002457600080fd5b50336040518060400160405280600d81526020016c26b7b1b5902aa9a21021b7b4b760991b815250604051806040016040528060058152602001646d5553444360d81b81525081600390816200007b919062000348565b5060046200008a828262000348565b5050506001600160a01b038116620000bd57604051631e4fbdf760e01b8152600060048201526024015b60405180910390fd5b620000c881620000e0565b50620000da3364e8d4a5100062000132565b6200043c565b600580546001600160a01b038381166001600160a01b0319831681179093556040519116919082907f8be0079c531659141344cd1fd0a4f28419497f9722a3daafe3b4186f6b6457e090600090a35050565b6001600160a01b0382166200015e5760405163ec442f0560e01b815260006004820152602401620000b4565b6200016c6000838362000170565b5050565b6001600160a01b0383166200019f57806002600082825462000193919062000414565b90915550620002139050565b6001600160a01b03831660009081526020819052604090205481811015620001f45760405163391434e360e21b81526001600160a01b03851660048201526024810182905260448101839052606401620000b4565b6001600160a01b03841660009081526020819052604090209082900390555b6001600160a01b038216620002315760028054829003905562000250565b6001600160a01b03821660009081526020819052604090208054820190555b816001600160a01b0316836001600160a01b03167fddf252ad1be2c89b69c2b068fc378daa952ba7f163c4a11628f55a4df523b3ef836040516200029691815260200190565b60405180910390a3505050565b634e487b7160e01b600052604160045260246000fd5b600181811c90821680620002ce57607f821691505b602082108103620002ef57634e487b7160e01b600052602260045260246000fd5b50919050565b601f8211156200034357600081815260208120601f850160051c810160208610156200031e5750805b601f850160051c820191505b818110156200033f578281556001016200032a565b5050505b505050565b81516001600160401b03811115620003645762000364620002a3565b6200037c81620003758454620002b9565b84620002f5565b602080601f831160018114620003b457600084156200039b5750858301515b600019600386901b1c1916600185901b1785556200033f565b600085815260208120601f198616915b82811015620003e557888601518255948401946001909101908401620003c4565b5085821015620004045787850151600019600388901b60f8161c191681555b5050505050600190811b01905550565b808201808211156200043657634e487b7160e01b600052601160045260246000fd5b92915050565b610b64806200044c6000396000f3fe608060405234801561001057600080fd5b50600436106101215760003560e01c8063715018a6116100ad57806395d89b411161007157806395d89b4114610265578063a9059cbb1461026d578063dd62ed3e14610280578063de5f72fd146102b9578063f2fde38b146102c157600080fd5b8063715018a61461020f57806376697640146102175780637bc1f6cc146102225780637d1d5d19146102425780638da5cb5b1461024a57600080fd5b8063313ce567116100f4578063313ce5671461018c578063484b973c146101ab57806354f8ebff146101c05780635b46900c146101d357806370a08231146101e657600080fd5b806306fdde0314610126578063095ea7b31461014457806318160ddd1461016757806323b872dd14610179575b600080fd5b61012e6102d4565b60405161013b9190610993565b60405180910390f35b6101576101523660046109fd565b610366565b604051901515815260200161013b565b6002545b60405190815260200161013b565b610157610187366004610a27565b610380565b600554600160a01b900460ff1660405160ff909116815260200161013b565b6101be6101b93660046109fd565b6103a4565b005b6101be6101ce3660046109fd565b6103ba565b61016b6101e1366004610a63565b6104c5565b61016b6101f4366004610a63565b6001600160a01b031660009081526020819052604090205490565b6101be610525565b61016b633b9aca0081565b61016b610230366004610a63565b60066020526000908152604090205481565b61016b600081565b6005546040516001600160a01b03909116815260200161013b565b61012e610539565b61015761027b3660046109fd565b610548565b61016b61028e366004610a85565b6001600160a01b03918216600090815260016020908152604080832093909416825291909152205490565b6101be610556565b6101be6102cf366004610a63565b6105b1565b6060600380546102e390610ab8565b80601f016020809104026020016040519081016040528092919081815260200182805461030f90610ab8565b801561035c5780601f106103315761010080835404028352916020019161035c565b820191906000526020600020905b81548152906001019060200180831161033f57829003601f168201915b5050505050905090565b6000336103748185856105ef565b60019150505b92915050565b60003361038e858285610601565b610399858585610680565b506001949350505050565b6103ac6106df565b6103b6828261070c565b5050565b6000811161041f5760405162461bcd60e51b815260206004820152602760248201527f4d6f636b555344433a20416d6f756e74206d75737420626520677265617465726044820152660207468616e20360cc1b60648201526084015b60405180910390fd5b6402540be4008111156104745760405162461bcd60e51b815260206004820152601a60248201527f4d6f636b555344433a20416d6f756e7420746f6f206c617267650000000000006044820152606401610416565b61047e828261070c565b816001600160a01b03167f4da6072eab47e2f656a4b7d70b0cb1703a0eba362e1ff9717b58cb1c18c1f908826040516104b991815260200190565b60405180910390a25050565b6001600160a01b0381166000908152600660205260408120546104e9908290610b08565b42106104f757506000919050565b6001600160a01b038216600090815260066020526040812054429161051b91610b08565b61037a9190610b1b565b61052d6106df565b6105376000610742565b565b6060600480546102e390610ab8565b600033610374818585610680565b33600081815260066020526040902042905561057690633b9aca0061070c565b604051633b9aca00815233907fc471df7d13ab46c73ec6eb2da0f35f84077f20d50243ba09a714b82cffc54de99060200160405180910390a2565b6105b96106df565b6001600160a01b0381166105e357604051631e4fbdf760e01b815260006004820152602401610416565b6105ec81610742565b50565b6105fc8383836001610794565b505050565b6001600160a01b0383811660009081526001602090815260408083209386168352929052205460001981101561067a578181101561066b57604051637dc7a0d960e11b81526001600160a01b03841660048201526024810182905260448101839052606401610416565b61067a84848484036000610794565b50505050565b6001600160a01b0383166106aa57604051634b637e8f60e11b815260006004820152602401610416565b6001600160a01b0382166106d45760405163ec442f0560e01b815260006004820152602401610416565b6105fc838383610869565b6005546001600160a01b031633146105375760405163118cdaa760e01b8152336004820152602401610416565b6001600160a01b0382166107365760405163ec442f0560e01b815260006004820152602401610416565b6103b660008383610869565b600580546001600160a01b038381166001600160a01b0319831681179093556040519116919082907f8be0079c531659141344cd1fd0a4f28419497f9722a3daafe3b4186f6b6457e090600090a35050565b6001600160a01b0384166107be5760405163e602df0560e01b815260006004820152602401610416565b6001600160a01b0383166107e857604051634a1406b160e11b815260006004820152602401610416565b6001600160a01b038085166000908152600160209081526040808320938716835292905220829055801561067a57826001600160a01b0316846001600160a01b03167f8c5be1e5ebec7d5bd14f71427d1e84f3dd0314c0f7b2291e5b200ac8c7c3b9258460405161085b91815260200190565b60405180910390a350505050565b6001600160a01b0383166108945780600260008282546108899190610b08565b909155506109069050565b6001600160a01b038316600090815260208190526040902054818110156108e75760405163391434e360e21b81526001600160a01b03851660048201526024810182905260448101839052606401610416565b6001600160a01b03841660009081526020819052604090209082900390555b6001600160a01b03821661092257600280548290039055610941565b6001600160a01b03821660009081526020819052604090208054820190555b816001600160a01b0316836001600160a01b03167fddf252ad1be2c89b69c2b068fc378daa952ba7f163c4a11628f55a4df523b3ef8360405161098691815260200190565b60405180910390a3505050565b600060208083528351808285015260005b818110156109c0578581018301518582016040015282016109a4565b506000604082860101526040601f19601f8301168501019250505092915050565b80356001600160a01b03811681146109f857600080fd5b919050565b60008060408385031215610a1057600080fd5b610a19836109e1565b946020939093013593505050565b600080600060608486031215610a3c57600080fd5b610a45846109e1565b9250610a53602085016109e1565b9150604084013590509250925092565b600060208284031215610a7557600080fd5b610a7e826109e1565b9392505050565b60008060408385031215610a9857600080fd5b610aa1836109e1565b9150610aaf602084016109e1565b90509250929050565b600181811c90821680610acc57607f821691505b602082108103610aec57634e487b7160e01b600052602260045260246000fd5b50919050565b634e487b7160e01b600052601160045260246000fd5b8082018082111561037a5761037a610af2565b8181038181111561037a5761037a610af256fea264697066735822122059f7e43bcf276ccc2a3992d470e2ea7f7e19f412a21484d41edc6308381d581164736f6c63430008140033",
  "linkReferences": {},
  "deployedLinkReferences": {}
}